:060000000A128A1110280B
:10000800FE00030E83120313C6000408C7000A0883
:10001800C8000A128A113B280A128A11132883136E
:10002800F030FD000130FE00B330FF00A030840046
:100038000A128A113F230A128A114430FD00023045
:10004800FE00A330FF00203084000A128A113F23EB
:100058000A128A11D501D601D701D801D901DA01CE
:10006800FA01FB01FC0183010A128A1158290730A1
:1000780089008C1E402841284D29372902308900E3
:100088001A08C4004408FB000230C4004408FC00FD
:100098000C1E4F2850284D290D3099004D291A085B
:1000A800C4007A08553E84004408831380007A0807
:1000B800013EC4004408FA00213083120313C5002E
:1000C8007530C400C40B6628C50B66286B2803303E
:1000D8007A02031C702871284D29FA018312031330
:1000E80057080A128A1103220A128A11831203136B
:1000F800C4004408DA000A30C4004408F300560873
:100108000A128A1103220A128A110A128A11262354
:100118000A128A1183120313C5004508D9006430F6
:10012800C4004408F30055080A128A1103220A126F
:100138008A110A128A1126230A128A1183120313BA
:10014800C5004508D80058300A128A1111230A122E
:100158008A11831203138500FC010C1EB428B528EC
:100168004D2950281A08C4007A08553E84004408CE
:10017800831380007A08013EC4004408FA00213045
:1001880083120313C5007530C400C40BC928C50BFE
:10019800C928CE2803307A02031CD328D4284D2935
:1001A800FA018312031357080A128A1103220A124A
:1001B8008A1183120313C4004408DA000A30C40009
:1001C8004408F30056080A128A1103220A128A11F7
:1001D8000A128A1126230A128A1183120313C500F0
:1001E8004508D9006430C4004408F30055080A12D1
:1001F8008A1103220A128A110A128A1126230A1264
:100208008A1183120313C5004508D80058300A1212
:100218008A1111230A128A11831203138600FC0122
:100228000C1E172918294D295028FC010C1E1D29C0
:100238001E294D2920300A128A1176220A128A11A3
:100248004D297B08C400C5014508003A03192D292A
:1002580019294408313A03195328033A0319B628CF
:100268001929FC014D297C08C400C5014508003A3C
:1002780003193F2935294408003A03194D29013A41
:1002880003194228033A03194D29013A031925296C
:1002980035298312031348088A0047088400460E4C
:1002A8008300FE0E7E0E09000A128A114E230A12DE
:1002B8008A110A128A1164230A128A110A128A11EF
:1002C800FB220A128A110A128A115B230A128A1166
:1002D800213083120313D4007530D300D30B722955
:1002E800D40B7229772998290C1E7B297C296C2923
:1002F800CA300A128A1142220A128A11FC01FC0A27
:100308006C290C1E882989296C29A0300A128A11A7
:1003180042220A128A11033083120313D3005308AE
:10032800FC006C29FC016C297C0883120313D300A0
:10033800D4015408003A0319A22996295308003A0F
:1003480003197829013A03196C29033A03198529F5
:10035800013A03196C2996290A128A111028453482
:1003680073346334723469346234613420346534EC
:100378006C342034763461346C346F347234203405
:100388006134203469346E346734723465347334BC
:1003980061347234203465346E34203465346C34FE
:1003A8002034703475346534723474346F342034C6
:1003B8000034513475346534203470347534653400
:1003C800723474346F34203464346534733465346F
:1003D80061342034633461346D3462346934613497
:1003E80072343F34203431342D343E3441342C348B
:1003F800203432342D343E34423420340034F20078
:10040800192A0030412A0130412A0230412A03309A
:10041800412A0430412A0530412A0630412A073052
:10042800412A0830412A0930412A7208F000F101B6
:100438007108003A0319212A052A7008303A03196D
:10044800052A013A0319072A033A0319092A013A26
:1004580003190B2A073A03190D2A013A03190F2A1F
:10046800033A0319112A013A0319132A0F3A0319F7
:10047800152A013A0319172A052A080083120313BB
:10048800D200D001D101632A50085207CE004E088D
:100498008400831300089900073083120313CF00E8
:1004A8007C30CE00CE0B562ACF0B562A00000130E6
:1004B80083120313D0070318D10A0030D10752085A
:1004C8000A128A11C7220A128A11831203134A08D0
:1004D8005102031D712A49085002031C742A752A07
:1004E800482A0800F700F801F901922A78087707E6
:1004F800F50075088400831300088312031399001C
:100508000730F6007D30F500F50B882AF60B882AAF
:100518000130F8070318F90A0030F90777080A12BA
:100528008A11E2220A128A1171087902031D9E2A91
:1005380070087802031CA12AA22A7A2A08004534E6
:100548006C342034703475346534723474346F34D8
:100558002034733465346C346534633463346934FB
:100568006F346E34613464346F3420346E346F34D5
:100578002034653473342034763461346C3469340F
:1005880064346F34003483120313CC004C08CB005E
:100598004B08CD00D32A0130CB004B08CD074D08BE
:1005A800840083130008031DDA2ADB2ACF2A4C08AB
:1005B8004D02C900CA01C91BCA030800F300730829
:1005C800F2007208F400EC2A0130F2007208F40715
:1005D8007408840083130008031DF32AF42AE82A08
:1005E80073087402F000F101F01BF1030800831690
:1005F8000313181218158316031787158316031388
:100608009A011930990083120313981718131816B2
:1006180083160313181398160800F400740A84004C
:1006280083130008F0007408840000087007F100C4
:100638007408023E840000087107F2007208F30093
:1006480073080800F600F501761C2B2B2C2B302B99
:100658007308F4007408F5070310F30D0310F60C83
:100668007608031D382B392B282B750808007E08BF
:100678008A007F0882000A128A113B230A128A1113
:100688008000840A04087D0603190034FF0A031950
:10069800FE0A3F2B8316031788018901831603136B
:1006A80085018601831203138501860108008B17D3
:1006B8000B17831603138C16831203138C1208006E
:0E06C800831603130F178F120F120F14080062
:04400E00D420FF3F7C
:00000001FF
